{
    "abi": [
        {
            "type": "function",
            "name": "addToBlockchain",
            "inputs": [
                {
                    "name": "receiver",
                    "type": "address",
                    "internalType": "address payable"
                },
                {
                    "name": "amount",
                    "type": "uint256",
                    "internalType": "uint256"
                },
                {
                    "name": "message",
                    "type": "string",
                    "internalType": "string"
                },
                {
                    "name": "keyword",
                    "type": "string",
                    "internalType": "string"
                }
            ],
            "outputs": [],
            "stateMutability": "nonpayable"
        },
        {
            "type": "function",
            "name": "getAllTransctions",
            "inputs": [],
            "outputs": [
                {
                    "name": "",
                    "type": "tuple[]",
                    "internalType": "struct Transctions.TransferStruct[]",
                    "components": [
                        {
                            "name": "from",
                            "type": "address",
                            "internalType": "address"
                        },
                        {
                            "name": "receiver",
                            "type": "address",
                            "internalType": "address"
                        },
                        {
                            "name": "amount",
                            "type": "uint256",
                            "internalType": "uint256"
                        },
                        {
                            "name": "message",
                            "type": "string",
                            "internalType": "string"
                        },
                        {
                            "name": "timestamp",
                            "type": "uint256",
                            "internalType": "uint256"
                        },
                        {
                            "name": "keyword",
                            "type": "string",
                            "internalType": "string"
                        }
                    ]
                }
            ],
            "stateMutability": "view"
        },
        {
            "type": "function",
            "name": "getTransctionCount",
            "inputs": [],
            "outputs": [
                {
                    "name": "",
                    "type": "uint256",
                    "internalType": "uint256"
                }
            ],
            "stateMutability": "view"
        },
        {
            "type": "function",
            "name": "transcationCount",
            "inputs": [],
            "outputs": [
                {
                    "name": "",
                    "type": "uint256",
                    "internalType": "uint256"
                }
            ],
            "stateMutability": "view"
        },
        {
            "type": "event",
            "name": "Transfer",
            "inputs": [
                {
                    "name": "from",
                    "type": "address",
                    "indexed": false,
                    "internalType": "address"
                },
                {
                    "name": "receiver",
                    "type": "address",
                    "indexed": false,
                    "internalType": "address"
                },
                {
                    "name": "amount",
                    "type": "uint256",
                    "indexed": false,
                    "internalType": "uint256"
                },
                {
                    "name": "message",
                    "type": "string",
                    "indexed": false,
                    "internalType": "string"
                },
                {
                    "name": "timestamp",
                    "type": "uint256",
                    "indexed": false,
                    "internalType": "uint256"
                },
                {
                    "name": "keyword",
                    "type": "string",
                    "indexed": false,
                    "internalType": "string"
                }
            ],
            "anonymous": false
        }
    ],
    "bytecode": {
        "object": "0x6080604052348015600e575f5ffd5b50610dc38061001c5f395ff3fe608060405234801561000f575f5ffd5b506004361061004a575f3560e01c8063202032451461004e5780633dd547e91461006c5780638d85186a1461008a578063cc2d7ead146100a8575b5f5ffd5b6100566100c4565b60405161006391906106c5565b60405180910390f35b6100746102fd565b60405161008191906106f4565b60405180910390f35b610092610305565b60405161009f91906106f4565b60405180910390f35b6100c260048036038101906100bd91906108af565b61030a565b005b60606001805480602002602001604051908101604052809291908181526020015f905b828210156102f4578382905f5260205f2090600602016040518060c00160405290815f82015f9054906101000a900473ffffffffffffffffffffffffffffffffffffffff1673ffffffffffffffffffffffffffffffffffffffff1673ffffffffffffffffffffffffffffffffffffffff168152602001600182015f9054906101000a900473ffffffffffffffffffffffffffffffffffffffff1673ffffffffffffffffffffffffffffffffffffffff1673ffffffffffffffffffffffffffffffffffffffff168152602001600282015481526020016003820180546101cb90610978565b80601f01602080910402602001604051908101604052809291908181526020018280546101f790610978565b80156102425780601f1061021957610100808354040283529160200191610242565b820191905f5260205f20905b81548152906001019060200180831161022557829003601f168201915b505050505081526020016004820154815260200160058201805461026590610978565b80601f016020809104026020016040519081016040528092919081815260200182805461029190610978565b80156102dc5780601f106102b3576101008083540402835291602001916102dc565b820191905f5260205f20905b8154815290600101906020018083116102bf57829003601f168201915b505050505081525050815260200190600101906100e7565b50505050905090565b5f5f54905090565b5f5481565b60015f5f82825461031b91906109d5565b9250508190555060016040518060c001604052803373ffffffffffffffffffffffffffffffffffffffff1681526020018673ffffffffffffffffffffffffffffffffffffffff16815260200185815260200184815260200142815260200183815250908060018154018082558091505060019003905f5260205f2090600602015f909190919091505f820151815f015f6101000a81548173ffffffffffffffffffffffffffffffffffffffff021916908373ffffffffffffffffffffffffffffffffffffffff1602179055506020820151816001015f6101000a81548173ffffffffffffffffffffffffffffffffffffffff021916908373ffffffffffffffffffffffffffffffffffffffff16021790555060408201518160020155606082015181600301908161044c9190610ba8565b506080820151816004015560a082015181600501908161046c9190610ba8565b5050507f416cfa4330a4565f45c2fd2dd4826a83a37443aba2ce6f79477c7355afac35fa3385858542866040516104a896959493929190610d20565b60405180910390a150505050565b5f81519050919050565b5f82825260208201905092915050565b5f819050602082019050919050565b5f73ffffffffffffffffffffffffffffffffffffffff82169050919050565b5f610508826104df565b9050919050565b610518816104fe565b82525050565b5f819050919050565b6105308161051e565b82525050565b5f81519050919050565b5f82825260208201905092915050565b8281835e5f83830152505050565b5f601f19601f8301169050919050565b5f61057882610536565b6105828185610540565b9350610592818560208601610550565b61059b8161055e565b840191505092915050565b5f60c083015f8301516105bb5f86018261050f565b5060208301516105ce602086018261050f565b5060408301516105e16040860182610527565b50606083015184820360608601526105f9828261056e565b915050608083015161060e6080860182610527565b5060a083015184820360a0860152610626828261056e565b9150508091505092915050565b5f61063e83836105a6565b905092915050565b5f602082019050919050565b5f61065c826104b6565b61066681856104c0565b935083602082028501610678856104d0565b805f5b858110156106b357848403895281516106948582610633565b945061069f83610646565b925060208a0199505060018101905061067b565b50829750879550505050505092915050565b5f6020820190508181035f8301526106dd8184610652565b905092915050565b6106ee8161051e565b82525050565b5f6020820190506107075f8301846106e5565b92915050565b5f604051905090565b5f5ffd5b5f5ffd5b5f610728826104df565b9050919050565b6107388161071e565b8114610742575f5ffd5b50565b5f813590506107538161072f565b92915050565b6107628161051e565b811461076c575f5ffd5b50565b5f8135905061077d81610759565b92915050565b5f5ffd5b5f5ffd5b7f4e487b71000000000000000000000000000000000000000000000000000000005f52604160045260245ffd5b6107c18261055e565b810181811067ffffffffffffffff821117156107e0576107df61078b565b5b80604052505050565b5f6107f261070d565b90506107fe82826107b8565b919050565b5f67ffffffffffffffff82111561081d5761081c61078b565b5b6108268261055e565b9050602081019050919050565b828183375f83830152505050565b5f61085361084e84610803565b6107e9565b90508281526020810184848401111561086f5761086e610787565b5b61087a848285610833565b509392505050565b5f82601f83011261089657610895610783565b5b81356108a6848260208601610841565b91505092915050565b5f5f5f5f608085870312156108c7576108c6610716565b5b5f6108d487828801610745565b94505060206108e58782880161076f565b935050604085013567ffffffffffffffff8111156109065761090561071a565b5b61091287828801610882565b925050606085013567ffffffffffffffff8111156109335761093261071a565b5b61093f87828801610882565b91505092959194509250565b7f4e487b71000000000000000000000000000000000000000000000000000000005f52602260045260245ffd5b5f600282049050600182168061098f57607f821691505b6020821081036109a2576109a161094b565b5b50919050565b7f4e487b71000000000000000000000000000000000000000000000000000000005f52601160045260245ffd5b5f6109df8261051e565b91506109ea8361051e565b9250828201905080821115610a0257610a016109a8565b5b92915050565b5f819050815f5260205f209050919050565b5f6020601f8301049050919050565b5f82821b905092915050565b5f60088302610a647fffffffffffffffffffffffffffffffffffffffffffffffffffffffffffffffff82610a29565b610a6e8683610a29565b95508019841693508086168417925050509392505050565b5f819050919050565b5f610aa9610aa4610a9f8461051e565b610a86565b61051e565b9050919050565b5f819050919050565b610ac283610a8f565b610ad6610ace82610ab0565b848454610a35565b825550505050565b5f5f905090565b610aed610ade565b610af8818484610ab9565b505050565b5b81811015610b1b57610b105f82610ae5565b600181019050610afe565b5050565b601f821115610b6057610b3181610a08565b610b3a84610a1a565b81016020851015610b49578190505b610b5d610b5585610a1a565b830182610afd565b50505b505050565b5f82821c905092915050565b5f610b805f1984600802610b65565b1980831691505092915050565b5f610b988383610b71565b9150826002028217905092915050565b610bb182610536565b67ffffffffffffffff811115610bca57610bc961078b565b5b610bd48254610978565b610bdf828285610b1f565b5f60209050601f831160018114610c10575f8415610bfe578287015190505b610c088582610b8d565b865550610c6f565b601f198416610c1e86610a08565b5f5b82811015610c4557848901518255600182019150602085019450602081019050610c20565b86831015610c625784890151610c5e601f891682610b71565b8355505b6001600288020188555050505b505050505050565b610c80816104fe565b82525050565b5f610ca0610c9b610c96846104df565b610a86565b6104df565b9050919050565b5f610cb182610c86565b9050919050565b5f610cc282610ca7565b9050919050565b610cd281610cb8565b82525050565b5f82825260208201905092915050565b5f610cf282610536565b610cfc8185610cd8565b9350610d0c818560208601610550565b610d158161055e565b840191505092915050565b5f60c082019050610d335f830189610c77565b610d406020830188610cc9565b610d4d60408301876106e5565b8181036060830152610d5f8186610ce8565b9050610d6e60808301856106e5565b81810360a0830152610d808184610ce8565b905097965050505050505056fea2646970667358221220d4cb31f9ecdc4a2a6143883efaa799ec04af1101e8ceba21403bd336b313013864736f6c634300081c0033",
        "linkReferences": {}
    },
    "methodIdentifiers": {
        "addToBlockchain(address,uint256,string,string)": "cc2d7ead",
        "getAllTransctions()": "20203245",
        "getTransctionCount()": "3dd547e9",
        "transcationCount()": "8d85186a"
    },
    "id": 0
}