{
    "abi": [
        {
            "type": "function",
            "name": "addToBlockchain",
            "inputs": [
                {
                    "name": "receiver",
                    "type": "address",
                    "internalType": "address payable"
                },
                {
                    "name": "amount",
                    "type": "uint256",
                    "internalType": "uint256"
                },
                {
                    "name": "message",
                    "type": "string",
                    "internalType": "string"
                },
                {
                    "name": "keyword",
                    "type": "string",
                    "internalType": "string"
                }
            ],
            "outputs": [],
            "stateMutability": "nonpayable"
        },
        {
            "type": "function",
            "name": "getAllTransctions",
            "inputs": [],
            "outputs": [
                {
                    "name": "",
                    "type": "tuple[]",
                    "internalType": "struct Transctions.TransferStruct[]",
                    "components": [
                        {
                            "name": "from",
                            "type": "address",
                            "internalType": "address"
                        },
                        {
                            "name": "receiver",
                            "type": "address",
                            "internalType": "address"
                        },
                        {
                            "name": "amount",
                            "type": "uint256",
                            "internalType": "uint256"
                        },
                        {
                            "name": "message",
                            "type": "string",
                            "internalType": "string"
                        },
                        {
                            "name": "timestamp",
                            "type": "uint256",
                            "internalType": "uint256"
                        },
                        {
                            "name": "keyword",
                            "type": "string",
                            "internalType": "string"
                        }
                    ]
                }
            ],
            "stateMutability": "view"
        },
        {
            "type": "function",
            "name": "getTransctionCount",
            "inputs": [],
            "outputs": [
                {
                    "name": "",
                    "type": "uint256",
                    "internalType": "uint256"
                }
            ],
            "stateMutability": "view"
        },
        {
            "type": "function",
            "name": "transcationCount",
            "inputs": [],
            "outputs": [
                {
                    "name": "",
                    "type": "uint256",
                    "internalType": "uint256"
                }
            ],
            "stateMutability": "view"
        },
        {
            "type": "event",
            "name": "Transfer",
            "inputs": [
                {
                    "name": "from",
                    "type": "address",
                    "indexed": false,
                    "internalType": "address"
                },
                {
                    "name": "receiver",
                    "type": "address",
                    "indexed": false,
                    "internalType": "address"
                },
                {
                    "name": "amount",
                    "type": "uint256",
                    "indexed": false,
                    "internalType": "uint256"
                },
                {
                    "name": "message",
                    "type": "string",
                    "indexed": false,
                    "internalType": "string"
                },
                {
                    "name": "timestamp",
                    "type": "uint256",
                    "indexed": false,
                    "internalType": "uint256"
                },
                {
                    "name": "keyword",
                    "type": "string",
                    "indexed": false,
                    "internalType": "string"
                }
            ],
            "anonymous": false
        }
    ],
    "bytecode": {
        "object": "0x6080604052348015600e575f5ffd5b50610b8b8061001c5f395ff3fe608060405234801561000f575f5ffd5b506004361061004a575f3560e01c8063202032451461004e5780633dd547e91461006c5780638d85186a1461008a578063cc2d7ead146100a8575b5f5ffd5b6100566100c4565b604051610063919061048d565b60405180910390f35b6100746100c9565b60405161008191906104bc565b60405180910390f35b6100926100cd565b60405161009f91906104bc565b60405180910390f35b6100c260048036038101906100bd9190610677565b6100d2565b005b606090565b5f90565b5f5481565b60015f5f8282546100e39190610740565b9250508190555060016040518060c001604052803373ffffffffffffffffffffffffffffffffffffffff1681526020018673ffffffffffffffffffffffffffffffffffffffff16815260200185815260200184815260200142815260200183815250908060018154018082558091505060019003905f5260205f2090600602015f909190919091505f820151815f015f6101000a81548173ffffffffffffffffffffffffffffffffffffffff021916908373ffffffffffffffffffffffffffffffffffffffff1602179055506020820151816001015f6101000a81548173ffffffffffffffffffffffffffffffffffffffff021916908373ffffffffffffffffffffffffffffffffffffffff1602179055506040820151816002015560608201518160030190816102149190610970565b506080820151816004015560a08201518160050190816102349190610970565b5050507f416cfa4330a4565f45c2fd2dd4826a83a37443aba2ce6f79477c7355afac35fa33858585428660405161027096959493929190610ae8565b60405180910390a150505050565b5f81519050919050565b5f82825260208201905092915050565b5f819050602082019050919050565b5f73ffffffffffffffffffffffffffffffffffffffff82169050919050565b5f6102d0826102a7565b9050919050565b6102e0816102c6565b82525050565b5f819050919050565b6102f8816102e6565b82525050565b5f81519050919050565b5f82825260208201905092915050565b8281835e5f83830152505050565b5f601f19601f8301169050919050565b5f610340826102fe565b61034a8185610308565b935061035a818560208601610318565b61036381610326565b840191505092915050565b5f60c083015f8301516103835f8601826102d7565b50602083015161039660208601826102d7565b5060408301516103a960408601826102ef565b50606083015184820360608601526103c18282610336565b91505060808301516103d660808601826102ef565b5060a083015184820360a08601526103ee8282610336565b9150508091505092915050565b5f610406838361036e565b905092915050565b5f602082019050919050565b5f6104248261027e565b61042e8185610288565b93508360208202850161044085610298565b805f5b8581101561047b578484038952815161045c85826103fb565b94506104678361040e565b925060208a01995050600181019050610443565b50829750879550505050505092915050565b5f6020820190508181035f8301526104a5818461041a565b905092915050565b6104b6816102e6565b82525050565b5f6020820190506104cf5f8301846104ad565b92915050565b5f604051905090565b5f5ffd5b5f5ffd5b5f6104f0826102a7565b9050919050565b610500816104e6565b811461050a575f5ffd5b50565b5f8135905061051b816104f7565b92915050565b61052a816102e6565b8114610534575f5ffd5b50565b5f8135905061054581610521565b92915050565b5f5ffd5b5f5ffd5b7f4e487b71000000000000000000000000000000000000000000000000000000005f52604160045260245ffd5b61058982610326565b810181811067ffffffffffffffff821117156105a8576105a7610553565b5b80604052505050565b5f6105ba6104d5565b90506105c68282610580565b919050565b5f67ffffffffffffffff8211156105e5576105e4610553565b5b6105ee82610326565b9050602081019050919050565b828183375f83830152505050565b5f61061b610616846105cb565b6105b1565b9050828152602081018484840111156106375761063661054f565b5b6106428482856105fb565b509392505050565b5f82601f83011261065e5761065d61054b565b5b813561066e848260208601610609565b91505092915050565b5f5f5f5f6080858703121561068f5761068e6104de565b5b5f61069c8782880161050d565b94505060206106ad87828801610537565b935050604085013567ffffffffffffffff8111156106ce576106cd6104e2565b5b6106da8782880161064a565b925050606085013567ffffffffffffffff8111156106fb576106fa6104e2565b5b6107078782880161064a565b91505092959194509250565b7f4e487b71000000000000000000000000000000000000000000000000000000005f52601160045260245ffd5b5f61074a826102e6565b9150610755836102e6565b925082820190508082111561076d5761076c610713565b5b92915050565b7f4e487b71000000000000000000000000000000000000000000000000000000005f52602260045260245ffd5b5f60028204905060018216806107b757607f821691505b6020821081036107ca576107c9610773565b5b50919050565b5f819050815f5260205f209050919050565b5f6020601f8301049050919050565b5f82821b905092915050565b5f6008830261082c7fffffffffffffffffffffffffffffffffffffffffffffffffffffffffffffffff826107f1565b61083686836107f1565b95508019841693508086168417925050509392505050565b5f819050919050565b5f61087161086c610867846102e6565b61084e565b6102e6565b9050919050565b5f819050919050565b61088a83610857565b61089e61089682610878565b8484546107fd565b825550505050565b5f5f905090565b6108b56108a6565b6108c0818484610881565b505050565b5b818110156108e3576108d85f826108ad565b6001810190506108c6565b5050565b601f821115610928576108f9816107d0565b610902846107e2565b81016020851015610911578190505b61092561091d856107e2565b8301826108c5565b50505b505050565b5f82821c905092915050565b5f6109485f198460080261092d565b1980831691505092915050565b5f6109608383610939565b9150826002028217905092915050565b610979826102fe565b67ffffffffffffffff81111561099257610991610553565b5b61099c82546107a0565b6109a78282856108e7565b5f60209050601f8311600181146109d8575f84156109c6578287015190505b6109d08582610955565b865550610a37565b601f1984166109e6866107d0565b5f5b82811015610a0d578489015182556001820191506020850194506020810190506109e8565b86831015610a2a5784890151610a26601f891682610939565b8355505b6001600288020188555050505b505050505050565b610a48816102c6565b82525050565b5f610a68610a63610a5e846102a7565b61084e565b6102a7565b9050919050565b5f610a7982610a4e565b9050919050565b5f610a8a82610a6f565b9050919050565b610a9a81610a80565b82525050565b5f82825260208201905092915050565b5f610aba826102fe565b610ac48185610aa0565b9350610ad4818560208601610318565b610add81610326565b840191505092915050565b5f60c082019050610afb5f830189610a3f565b610b086020830188610a91565b610b1560408301876104ad565b8181036060830152610b278186610ab0565b9050610b3660808301856104ad565b81810360a0830152610b488184610ab0565b905097965050505050505056fea2646970667358221220f6a955d6aa97ac1bb4313414f84a91259597147f1f6b490262ee37be1a86147964736f6c634300081c0033",
        "linkReferences": {}
    },
    "methodIdentifiers": {
        "addToBlockchain(address,uint256,string,string)": "cc2d7ead",
        "getAllTransctions()": "20203245",
        "getTransctionCount()": "3dd547e9",
        "transcationCount()": "8d85186a"
    },
    "id": 15
}